:020000021000EC
:10E000000C9490F00C94AFF00C94AFF00C94AFF033
:10E010000C94AFF00C94AFF00C94AFF00C94AFF004
:10E020000C94AFF00C94AFF00C94AFF00C94AFF0F4
:10E030000C94AFF00C94AFF00C94AFF00C94AFF0E4
:10E040000C94AFF00C94AFF00C94AFF00C94AFF0D4
:10E050000C94AFF00C94AFF00C94AFF00C94AFF0C4
:10E060000C94AFF00C94AFF00C94AFF00C94AFF0B4
:10E070000C94AFF00C94AFF00C94AFF00C94AFF0A4
:10E080000C94AFF00C94AFF00C94AFF00C94AFF094
:10E090000C94AFF00C94AFF00C94AFF00C94AFF084
:10E0A0000C94AFF00C94AFF00C94AFF00C94AFF074
:10E0B0000C94AFF00C94AFF00C94AFF00C94AFF064
:10E0C0000C94AFF00C94AFF00C94AFF00C94AFF054
:10E0D0000C94AFF00C94AFF00C94AFF00C94AFF044
:10E0E0000C94AFF00C94AFF00C94AFF00C94AFF034
:10E0F0000C94AFF00C94AFF00C94AFF00C94AFF024
:10E100000C94AFF00C94AFF00C94AFF00C94AFF013
:10E110000C94AFF00C94AFF00C94AFF00C94AFF003
:10E1200011241FBECFEFD1E4DEBFCDBF12E0A0E0CF
:10E13000B2E0E2EBF8EE01E00BBF02C007900D92F7
:10E14000A230B107D9F713E0A2E0B2E001C01D92FE
:10E15000AD30B107E1F70E94D4F10C9457F40C9460
:10E1600000F0282F80910202813019F0823041F0B6
:10E1700008958091C00085FFFCCF2093C6000895CC
:10E180008091C80085FFFCCF81B398E0892781BBCF
:10E190002093CE0008951F93982F9595959595956A
:10E1A0009595905D8F708A3054F4182F105D892FEB
:10E1B0000E94B1F0812F0E94B1F01F910895182F95
:10E1C000195A892F0E94B1F0812F0E94B1F01F913E
:10E1D0000895EF92FF920F931F9380910202813076
:10E1E00089F1823031F080E01F910F91FF90EF9024
:10E1F0000895EE24FF2487018091C80087FD17C091
:10E200000894E11CF11C011D111D81E0E81684E257
:10E21000F80684EF080780E0180770F3E091040225
:10E22000F091050209958091C80087FFE9CF81B37D
:10E2300098E0892781BB8091CE001F910F91FF90BC
:10E24000EF900895EE24FF2487018091C00087FDA0
:10E2500017C00894E11CF11C011D111D81E0E81696
:10E2600084E2F80684EF080780E0180770F3E09175
:10E270000402F091050209958091C00087FFE9CF63
:10E280008091C6001F910F91FF90EF9008951F930A
:10E290000E94E9F0182F0E94B1F0113634F41033C7
:10E2A0000CF01053812F1F9108951755812F1F9146
:10E2B00008951F930E9447F1182F0E9447F112956D
:10E2C000107F810F1F910895982F209102029923AA
:10E2D00039F0213031F0223061F091509923C9F7A3
:10E2E00008958091C00087FFFCCF8091C6009150B7
:10E2F000F5CF8091C80087FFFCCF8091CE00915070
:10E30000EDCF1F93182F0E94E9F0803281F08091A9
:10E3100003028F5F80930302823011F01F910895F2
:10E32000E0910402F091050209951F91089584E19E
:10E330000E94B1F0812F0E94B1F080E10E94B1F003
:10E340001F9108950E94E9F0803271F080910302DC
:10E350008F5F80930302823009F00895E0910402F8
:10E36000F09105020995089584E10E94B1F080E1E1
:10E370000E94B1F0089540E951E08823A1F08A9A03
:10E3800028EE33E0FA013197F1F721503040D1F710
:10E390008A9828EE33E0FA013197F1F721503040A6
:10E3A000D1F7815061F708950F931F93CF93DF93B7
:10E3B00000006998719A0000000000000000000051
:10E3C000000000000000000000000000000000004D
:10E3D00000000000000061994EC2719882E08093B5
:10E3E000020289E18093CC001092CD001092C80007
:10E3F00086E08093CA0088E18093C90052985A9AB7
:10E40000829A839A85E00E94BBF10E94E9F08033F2
:10E41000B1F18133B9F1803409F454C0813409F485
:10E420005AC0823409F469C0853409F46CC080355F
:10E4300031F1823521F1813511F1853509F469C059
:10E44000863509F471C0843609F47AC0843709F43A
:10E45000F5C0853709F455C1863709F44AC0809163
:10E4600003028F5F80930302823079F6E091040209
:10E47000F091050209950E94E9F0803351F60E945F
:10E48000A2F1C3CF0E94E9F0803249F784E10E94F3
:10E49000B1F081E40E94B1F086E50E94B1F082E51E
:10E4A0000E94B1F080E20E94B1F089E40E94B1F0D4
:10E4B00083E50E94B1F080E50E94B1F080E10E9406
:10E4C000B1F0A3CF0E94E9F08638C8F20E94E9F0CB
:10E4D0000E94A2F19ACF0E94E9F0803809F4AAC004
:10E4E000813809F4A3C0823809F420C1883909F4BD
:10E4F0008CC080E00E9481F188CF84E10E9464F1A9
:10E500000E94A2F182CF85E00E9464F10E94A2F1F4
:10E510007CCF0E94E9F0809306020E94E9F080938C
:10E5200007020E94A2F171CF0E94E9F0803309F442
:10E5300070C083E00E9464F180E00E9481F165CFA9
:10E540000E94E9F0809309030E94E9F08093080398
:10E5500080910C038E7F80930C030E94E9F0853438
:10E5600009F4FCC08091080390910903892B89F07C
:10E5700000E010E00E94E9F0F801E85FFD4F8083C1
:10E580000F5F1F4F80910803909109030817190727
:10E5900088F30E94E9F0803209F061CF80910C038A
:10E5A00080FFEEC02091060230910702220F331F38
:10E5B000309307022093060280910803909109038B
:10E5C000892BE1F000E010E0F801E85FFD4FC901A0
:10E5D00060810E9449F420910602309107022F5F6A
:10E5E0003F4F30930702209306020F5F1F4F809129
:10E5F0000803909109030817190730F384E10E947A
:10E60000B1F080E10E94B1F000CF83E00E9481F17F
:10E61000FCCE0E94E9F00E94E9F0182F0E94E9F078
:10E62000112309F420C1113009F494C081E00E9443
:10E6300081F1EBCE82E00E9481F1E7CE0E94E9F009
:10E64000809309030E94E9F0809308032091060259
:10E650003091070237FD8EC080910C038D7F80932F
:10E660000C03220F331F30930702209306020E94EF
:10E67000E9F0853409F478C080910C038E7F809393
:10E680000C030E94E9F0803209F0BFCE84E10E94C1
:10E69000B1F08091080390910903892B09F442C0DD
:10E6A00000E010E0209106023091070217C0F90146
:10E6B00084910E94B1F020910602309107022F5FF1
:10E6C0003F4F30930702209306020F5F1F4F809148
:10E6D0000803909109030817190720F580910C038E
:10E6E00080FD28C081FFE3CFC901A0E0B0E08050E9
:10E6F0009040AF4FBF4FABBFFC0187910E94B1F07C
:10E70000DACF0E94E9F0803209F0A9CE84E10E94BC
:10E71000B1F08EE10E94B1F087EA0E94B1F081E091
:10E720000E94B1F080E10E94B1F06FCE80E10E94C2
:10E7300081F16BCEC9010E9441F40E94B1F0209199
:10E740000602309107022F5F3F4F3093070220935C
:10E750000602BBCF87EA0E9481F157CE80910C035D
:10E76000816080930C03FECE80910C0381608093C6
:10E770000C0387CF80910C03826080930C0371CFD0
:10E780008091070287FD73C010920B0380910B03E9
:10E790008BBF8091060290910702880F991F90937A
:10E7A0000702809306028091080380FF09C08091D0
:10E7B000080390910903019690930903809308033D
:10E7C000F894F999FECF1127E0910602F091070223
:10E7D000C8E0D2E08091080390910903103091F4D1
:10E7E0000091570001700130D9F303E00093570006
:10E7F000E8950091570001700130D9F301E10093D1
:10E800005700E89509901990009157000170013068
:10E81000D9F301E000935700E8951395103898F06C
:10E8200011270091570001700130D9F305E00093E2
:10E830005700E8950091570001700130D9F301E1CC
:10E8400000935700E8953296029709F0C7CF103031
:10E8500011F00296E5CF112484E10E94B1F080E12D
:10E860000E94B1F0D2CD8EE10E9481F1CECD81E047
:10E8700080930B038BCFE0910402F0910502099580
:10E88000ADCDF999FECF92BD81BDF89A992780B59B
:10E890000895262FF999FECF1FBA92BD81BD20BDE4
:10E8A0000FB6F894FA9AF99A0FBE01960895F89463
:02E8B000FFCF98
:02E8B2008000E4
:040000031000E00009
:00000001FF
